:020000040800F2
:1000000088090020790200084D240008F51F000827
:10001000012400080D1A0008552D000800000000FA
:10002000000000000000000000000000DB290008C4
:10003000591A0008000000008F020008C52A0008B5
:100040009302000893020008930200089527000815
:100050009302000893020008291E0008930200087A
:10006000930200089302000893020008930200081C
:10007000930200089302000893020008930200080C
:1000800093020008930200089302000893020008FC
:1000900093020008930200089302000893020008EC
:1000A00093020008930200089302000893020008DC
:1000B00093020008930200089302000893020008CC
:1000C00093020008930200089302000893020008BC
:1000D00093020008292B0008452B00089302000812
:1000E000930200089302000893020008930200089C
:1000F000930200089302000893020008930200088C
:10010000930200089302000893020008930200087B
:10011000930200089302000893020008930200086B
:10012000930200089302000893020008930200085B
:1001300000F002F800F090F80AA090E8000C824469
:100140008344AAF10107DA4501D100F085F8AFF246
:10015000090EBAE80F0013F0010F18BFFB1A43F0A5
:10016000010318473437000054370000103A24BF09
:1001700078C878C1FAD8520724BF30C830C144BF0C
:1001800004680C607047000000230024002500264E
:10019000103A28BF78C1FBD8520728BF30C148BFEA
:1001A0000B6070476E2900F00683702900F0758699
:1001B000662903F0CF82652903F0CC82672903F01A
:1001C000C9826129AFF3008003681B0A28BF41F090
:1001D0008001692900F0CA80642900F0C780752970
:1001E00000F0C4806F2900F00286782900F0418673
:1001F000E92900F09D85E42900F09A85F52900F0B1
:100200009785EF2900F0FF85F82900F04086036804
:10021000DB0928BF41F08001632900F01E857329A6
:1002200000F02385E32900F0D786F32900F0DC866F
:10023000002070471FB500F03BFE040000200021A5
:1002400002F006FF401C60600020002102F0EAFE80
:10025000E0601FBD10B510BD00F060FF1146FFF754
:10026000E9FF02F0A5FE00F087FF03B4FFF7F2FFFD
:1002700003BC00F0CBFF0000094880470948004755
:10028000FEE7FEE7FEE7FEE7FEE7FEE7FEE7FEE746
:10029000FEE7FEE704480549054A064B70470000A3
:1002A000C92A0008310100088801002088090020BF
:1002B00088050020880500207CB51D4616460C00E8
:1002C000009001D02044401E074B7B442A466946DB
:1002D0000190304600F097FC05461CB100206946AD
:1002E00000F0A4FC28467CBD690900000FB41CB5D1
:1002F000084B06AA7B4469460090059800F083FCF1
:1003000004460020694600F091FC20461CBC5DF8C4
:1003100014FB00003509000070B50C460546012AA3
:1003200005D02878800600D5EA69002302E0012381
:1003300005E05B1C934202D2E05C0028F9D1A86979
:10034000E618C01AA861286A18442862284600F0F6
:10035000A0F904E0D5E9012114F8010B9047B4425B
:10036000F8D3284600F0ABF970BD00002DE9F0414C
:100370000646002410687529314616A510D000F0F5
:10038000AFF9002802DA404213A507E031688A0776
:1003900001D512A502E0490704D511A5012401E009
:1003A00000F0A7F900210A2206F1240709E0B0FBBA
:1003B000F2FCB0FBF2F302FB1C003030785418461C
:1003C000491C0028F3D123462A463046BDE8F041B7
:1003D00000F098B9000000002D0000002B00000084
:1003E000200000002DE9F05F894604464FF0000A26
:1003F000DFF874B1FB44C0F820A02046E1688847CC
:10040000002874D0252806D0D4E901219047206A1D
:10041000401C2062F1E700265F462046E1688847DD
:100420002028054607DB312D05D2781910F8200C5D
:1004300008B10643F1E7B00701D526F00406C4F879
:100440001CA00027C4F818A02A2D09D0284602F0C5
:10045000A8FD38B304EB8708303DC8F8185019E000
:1004600059F8041B204604EB87029161E168884734
:10047000012F054618D1E069002820DA26F0200671
:100480001DE0D8F8180000EB800005EB4000303884
:10049000C8F818002046E1688847054602F081FD4B
:1004A0000028EED1012F0AD02E2D08D12046E16878
:1004B00088477F1C0546022F46F02006C4DBA06952
:1004C000002803DA404246F00106A061F00701D09F
:1004D00026F010066C2D0BD0682D09D04C2D39D08C
:1004E0006A2D35D0742D35D07A2D33D016E038E012
:1004F000E1682F4620468847B842054609D16C2F4F
:1005000026D04FF48060E1680643204688470546C0
:1005100004E06C2F1AD04FF4807006430DB3A5F1A0
:100520004100192802D8203546F400664A4629467B
:10053000204626604E46FFF735FE80B101280BD0DD
:10054000F61D26F0070000F1080956E74020E4E711
:100550008020D8E70020D6E706F104094DE72846B9
:1005600052E7206ABDE8F09F60330000401ECAB227
:1005700010F8011F8A4202D00029F9D100207047EB
:1005800030B505460B462A4613F8014B12F8010B0D
:1005900008B1A042F8D01CB1002802D06D1CF1E7D0
:1005A000284630BD10B5431C02E010F8011B71B1A4
:1005B0008107FAD14FF0013202C88C1A8C4314EA39
:1005C000C211F9D0C01A0A0603D0C01E10BDC01A4D
:1005D00010BD0A0401D0801E10BD0902FCD0401ECF
:1005E00010BD421E12F8013F002BFBD111F8013B58
:1005F000002B02F8013BF9D170474FF000020429AB
:10060000C0F0128010F0030C00F01B80CCF1040C41
:10061000BCF1020F18BF00F8012BA8BF20F8022B75
:10062000A1EB0C0100F00DB85FEAC17C24BF00F81B
:10063000012B00F8012B48BF00F8012B70474FF049
:10064000000200B5134694469646203922BFA0E822
:100650000C50A0E80C50B1F12001BFF4F7AF09072E
:1006600028BFA0E80C5048BF0CC05DF804EB89001F
:1006700028BF40F8042B08BF704748BF20F8022B62
:1006800011F0804F18BF00F8012B7047704770477A
:10069000704770B5044685690068C10601D53026EB
:1006A00000E02026C00707D070BDD4E90121304604
:1006B0009047206A401C20626D1EF6D570BD70B553
:1006C000044685690078C00707D170BDD4E90121CF
:1006D00020209047206A401C20626D1EF6D570BD18
:1006E00009684A0501D540B27047C905FCD500B27A
:1006F000704709684A0501D5C0B27047C905FCD5E5
:1007000080B270472DE9F0470D469946924604465F
:1007100000F124080168880604D5E06921F0100181
:10072000216000E00120A84201DD471B00E0002716
:10073000A1697A1902EB0900081AA0612078C006A5
:1007400002D42046FFF7A5FF002608E0D4E90121E6
:100750001AF806009047206A401C761C20624E451D
:10076000F4DB2078C0060AD52046FFF792FF06E0AA
:10077000D4E9012130209047206A401C2062381EB5
:10078000A7F10107F4DC07E0D4E9012118F805001E
:100790009047206A401C2062281EA5F10105F3DC69
:1007A0002046FFF78CFF2078000602D50220BDE826
:1007B000F0870120FBE711680268006A530501D544
:1007C00008700AE0D30501D5088006E0130603D5BA
:1007D000C217C1E9000200E00860012070477047BD
:1007E0002DE9FF4F0C461E464FF0FF378BB0D2E984
:1007F0000001DDF860800A908A46C1F30A5505B908
:100800003D46002108464FF00000BAF1000F00F409
:10081000400005DA00EB80004FF4400101EA50008F
:100820004FEA9059B9F1010F00DDB9460A9850EA34
:100830004A000ED044F61050A5F2FF3545432F1460
:10084000B8F1000F1ED07542291E1EDDC9F100024D
:100850001CE0B8F1010F4FF0000001D0302103E09F
:10086000F24305E02154401CB042FBDB304600223D
:10087000002121540B99C1F80880C1E900200FB074
:10088000BDE8F08FBD1B6D1CDEE74A4600DA694209
:1008900006A800F0ADFB06AB93E8070003AB83E8C6
:1008A000070050460A9900F0B8FC8DE80700A0F553
:1008B00000501F3800900398002D0ADD42F21F01FE
:1008C0004A460844002303A90390684600F021FF2C
:1008D00009E0A0F500504A461F38002303A9039001
:1008E000684600F02BFF8DE807000004000C03D0E1
:1008F0004FF0FF30410800E01046B8F1000F03D080
:100900000022009215461EE0751E05D400F0D4FAB0
:10091000303262556D1EF9D5B3460122084302D02C
:1009200000227F1C04E02078302801D100227F1EA5
:10093000002A099784D01DE0112D07DA00F0BCFAD7
:10094000303262556D1C50EA0102F5D1084302D0E5
:100950000098C8B10EE00021681E05E0235C625CCF
:1009600063542254401E491C8142F7DBAB46A81B4E
:10097000401E0990002004F80B000B98099AC0F85B
:100980000880C0E9002B7AE711264FF0000857E7EE
:100990002DE9F04F88460446D21D22F0070191B0A0
:1009A000D1E90001CDE90A0102F0E7FA02460B980D
:1009B000C00F01D02D2007E02068810701D52B2032
:1009C00002E0202101EAC000032A099001D0072A91
:1009D00005DB03464146204600F0B4FA0BE12078DF
:1009E000800601D5E06900E00620B8F1650F814678
:1009F00006D0B8F1660F18D0B8F1670F70D131E0AA
:100A00000020B9F1110F009001DB112301E009F181
:100A100001030AAA01A90CA8FFF7E2FEDDE90C70A8
:100A2000002609F10105834647E001204B4600906E
:100A30004FF000470AAA01A90CA8FFF7D1FEDDE993
:100A40000DB00C995D46002610B909F101000D1892
:100A5000B9EB050003D4C0F1FF3609F10105A5EBA0
:100A600009002BE0B9F1010F01DA4FF00109002074
:100A7000B9F1110F0090484601DD112300E0034653
:100A80000AAA01A90CA8FFF7ABFEDDE90C704D46E0
:100A900000268346207800070AD4AB4500DA5D467D
:100AA00001A8012D04DD411911F8011C302907D0DE
:100AB0004F4502DA17F1040F04DA012082460FE0F5
:100AC0006D1EEEE7002F02DCED1B3E4403E0781CB8
:100AD000A84200DD7D1CB81B00F1010A4FF0004761
:100AE0002078000703D4AA4501DB4FF0FF3A00212C
:100AF000B7F1004F0DF143088DF8431024D00220C8
:100B00002B23002F01DA7F422D230A21021EA0F1A0
:100B1000010000DC5FB197FBF1FC97FBF1F201FBF8
:100B20001C7C17460CF1300C08F801CDEEE7A8F15B
:100B3000010003702188090501D5452100E06521E8
:100B4000A0F1010800F8011C09980FA9A1EB080702
:100B5000FF1D00B10120411901EBEA70A169384481
:100B6000081A401EA0612078C00602D42046FFF774
:100B700090FD099828B1D4E901219047206A401CD2
:100B800020622078C00622D52046FFF782FD1EE0B5
:100B9000002E04DBB34502DD01A8805D00E03020BB
:100BA000D4E901219047206A401C2062761CAAF1FA
:100BB00001005FEA000A0AD100F07AF9C068016812
:100BC000405CD4E901219047206A401C2062281E25
:100BD000A5F10105DCDC07E0D4E9012118F8010BDF
:100BE0009047206A401C2062381EA7F10107F3DC01
:100BF0002046FFF764FD032011B041E601694A1C5D
:100C000002610878704700B58FB0CDE9013100214D
:100C1000059105497944CDE9031011466846FFF76F
:100C2000E1FB0FB000BD0000E5FFFFFF0A6802F81E
:100C3000010B0A607047D1E900239A4202D2531C8B
:100C40000B601070704710B5436913B1AFF30080AB
:100C500001E0FFF761FB012010BD127800F12401D3
:100C60000A7000224A700122EDE711684FF0FF324E
:100C7000E9E700002DE9FF5F15468A460446DFF8E4
:100C8000AC80F8440027D8E900103E46CDE90010BA
:100C900010E03AF816106A4602A800F01BFA411C50
:100CA00007D02178890603D5E269391891420DD819
:100CB0000744761C2078800602D5E069B84205DD3D
:100CC000AE42E6DB3AF816000028E2D1A069C01B6C
:100CD000A0612046FFF7DDFCD8E90010CDE9001047
:100CE000002017E03AF818106A4602A800F0F2F95E
:100CF000B0F1FF3F81460BD000250DF1080B05E058
:100D0000D4E901211BF8050090476D1C4D45F7D330
:100D100008F10100B0428046E4DB206A38442062DA
:100D20002046FFF7CCFCBDE8FF9F0000E62A00004C
:100D30002DE9F0418046D21D22F007020025D2E9BC
:100D40000002F52915A614D0011E72F1000106DA81
:100D50000023D0EB030063EB020211A608E0D8F8F1
:100D600000108B0701D50FA602E0490701D50EA69A
:100D700001251146002408F1240704E000F09CF846
:100D800030323A55641C50EA0102F7D12B46324604
:100D900021464046BDE8F041FFF7B4BC000000002A
:100DA0002D0000002B0000002000000030B40021C6
:100DB00000F1240408E002F00705D208303542EAC9
:100DC0004372DB086554491C52EA0305F3D10468F9
:100DD000002310A2250707D5A40600D421B1C469B9
:100DE00001230DA2641EC46130BCFFF78BBC10B59B
:100DF000044621461068FFF77CFC02462046BDE809
:100E000010400023D2E7D21D22F00701D1E90023D0
:100E1000CCE700000000000030000000F0B40D46F8
:100E20000188090502D5214C7C4402E01F4C7C441A
:100E30000E34002100F1240608E002F00F07120929
:100E4000E75D42EA03721B097754491C52EA030723
:100E5000F3D102780023120704D5702D06D009B112
:100E6000022311342246F0BCFFF74CBC012310349E
:100E7000F8E770B504460D4621461068FFF739FCC7
:100E8000024629462046BDE870400023C6E7D21D31
:100E900022F00703D3E90023C0E70368126843F098
:100EA000200303600823C3610023B7E7482900003B
:100EB000004870474801002030B5B0F10A024FEAFF
:100EC000900E71F100034EEA817EB0EB0E0061EBF3
:100ED00091014FEA101E4EEA017E10EB0E0041EB2D
:100EE00011114FEA102E4EEA016E10EB0E0041EB8D
:100EF00011214FEA104E4EEA014E10EB0E0041EB6D
:100F00001141401841F100014FEAD00040EA417020
:100F10004FEAD10110EB80054FEA810444EA907456
:100F200044EB01046D1944EB0404521BA3414FF040
:100F3000000348BF0A3200D530BD401C41F100011A
:100F400030BD00002DE9F0411F460446032601682C
:100F5000072A01F4006004DB08B116A505E016A518
:100F600003E008B115A500E015A521F010002060F0
:100F7000A069C01EA0610FB1401EA0612046FFF70E
:100F800088FB4FB1D4E9012138469047206A401CC4
:100F90002062C01C206206E0206AFAE7D4E9012141
:100FA00015F8010B9047761EF8D22046FFF787FB15
:100FB000BDE8F0814E414E006E616E00494E460024
:100FC000696E660010B5436913B1AFF3008001E0AC
:100FD000FFF750FE012010BD128800F12401828429
:100FE0000022C2840122EDE711684FF0FF32E9E7E9
:100FF0002DE9F047814616468AB0354878440DC839
:101000008DE80D0032487844801C03AC0DC884E89C
:101010000D0041F69B300844372190FBF1F290FB24
:10102000F1F5A5F1800501FB12041B3C02D56442D9
:10103000012000E00020DFF898A080460027FA4455
:10104000AAF1BE0A0EE0E0070AD03246684607EB76
:10105000470101230AEB810100F070FB8DE80700D6
:1010600064107F1C002CEED1194F7F44AE3F19E075
:10107000E80715D007EB04100DF1180A90E80E00F0
:101080008AE80E00C068F04201D1981908903246F3
:10109000012306A903A800F051FB03AB83E8070076
:1010A0006D10641C002DE3D14FF0010332466946F8
:1010B000B8F1000F03A802D000F02BFB01E000F014
:1010C0003DFBC9E90001C9F808200AB0BDE8F08776
:1010D0001828000070B516460C46054600F044F886
:1010E000036893F80101012806D0FF2C0FD8185D82
:1010F00068B101202C7070BDD3F80701324621463B
:1011000003F2071303442846BDE8704018474FF028
:10111000FF3070BD00487047280100207546FFF77A
:10112000F9FFAE4605006946534620F007008546A4
:1011300018B020B5FFF7AEF8BDE820404FF000062C
:101140004FF000074FF000084FF0000B21F00701AF
:10115000AC46ACE8C009ACE8C009ACE8C009ACE8F2
:10116000C0098D467047000010B5FFF7A1FE001DB5
:1011700010BD00BFDD1E000010B50446AFF30080B7
:101180002046BDE81040FFF770B800004FF0013C6A
:1011900050F8042B51F8043B9A4221D1A2EB0C03E6
:1011A000934313EACC1317D150F8042B51F8043BA6
:1011B0009A4215D1A2EB0C03934313EACC130BD143
:1011C00050F8042B51F8043B9A4209D1A2EB0C03CE
:1011D000934313EACC13DBD04FF00000704700BFFD
:1011E000D01A01BAB1FA81F101F0180122FA01F026
:1011F000CB40C1F12001DBB2C0B2C01A2CFA01F31E
:10120000D11A914311EAC311E6D170470149182060
:10121000ABBEFEE72600020070475FEA400C08BF45
:1012200091F0000F4FEA8C234FEAC12243EA51515B
:101230004FEA1C5018BF00F5F0404FEA300018BFCD
:1012400041F000415FEA6C5C00F02980BCF1FF3F97
:1012500008BF40F080407047130C06BF12044FF0E7
:10126000100C4FF0000C130E04BF12020CF1080C0E
:10127000130F04BF12010CF1040C930F04BF920072
:101280000CF1020CD30F04BF52000CF1010C1146FB
:101290004FF00002A0F11F00A0EB0C00704711F00E
:1012A000004F08BF704731F000413FF4D5AF0B0C41
:1012B00006BF09044FF0100C4FF0000C0B0E04BFDA
:1012C00009020CF1080C0B0F04BF09010CF1040C0E
:1012D0008B0F04BF89000CF1020CCB0F04BF490037
:1012E0000CF1010CCCF12003A0EB0C0022FA03F36B
:1012F00002FA0CF241EA030100F10100704720F00C
:101300007F4C80EA030023F07F47ACEB070303F533
:101310007C5300F0004003F1FF032DE980494FEAC0
:10132000154B09B44FEA144325EA0B4E24EA03484F
:101330000FF2042606EB132749083E785FEA3202D3
:1013400003FB0667C7F5000707FB06F64FEA5437AD
:101350004FEAD64606F1020607FB066CCCF1005CAC
:101360004FEA1C472CEA074C07FB06F40CFB06F57A
:1013700004EB15464FEA961634BF00204FF00040AC
:101380004FEAD13706FB07FC4FEA1C4C0CFB0BF76E
:10139000D21B03FB0CF761EB07010CFB0EF7B0EB64
:1013A000074072EB17420CFB08F734BFA2EB074271
:1013B000B2EB074261EB17414FEA0C444FEA910749
:1013C00006FB07FC4FEA1C4C0CFB0BF7B0EBC740CD
:1013D00072EB573203FB0CF734BFA2EBC742B2EB00
:1013E000C74261EB57310CFB0EF7B0EBC70072EB55
:1013F00057720CFB08F734BFA2EBC702B2EBC7026F
:1014000061EB5771039F4FEA816141EA921104EB4E
:10141000CC044FEAD1374FEA826206FB07FC42EA6E
:1014200090124FEA80604FEA1C4C0CFB0BF7D21B6A
:1014300003FB0CF761EB07010CFB0EF7B0EB074069
:1014400072EB17420CFB08F734BFA2EB0742B2EB7A
:10145000074261EB17414FEA8C554FEA910704EBC5
:101460009C2406FB07FC4FEA1C4C0CFB0BF7B0EB73
:10147000C74072EB573203FB0CF734BFA2EBC742F5
:10148000B2EBC74261EB57310CFB0EF7B0EBC70074
:1014900072EB57720CFB08F734BFA2EBC702B2EB3A
:1014A000C70261EB577115EB4C254FEA816141EAA8
:1014B00092114FEA82624FEAD13742EA901206FB5C
:1014C00007FC44F100044FEA80604FEA1C4C0CFB1F
:1014D0000BF7D21B03FB0CF761EB07010CFB0EF7BC
:1014E000B0EB074072EB17420CFB08F734BFA2EBDE
:1014F0000742B2EB074261EB174115EB1C154FEAAF
:10150000813141EA92414FEA823242EA90424FEA07
:1015100080304FEA0C7644F1000448EA03434EEA77
:101520000B484FF0000EB2EB080C71EB030724BF21
:10153000624639464EEB0E0E4FF0000B001852413A
:1015400049414BEB0B0BB2EB080C71EB03077BF142
:10155000000B24BF624639464EEB0E0E4FF0000BD7
:101560000018524149414BEB0B0BB2EB080C71EBED
:1015700003077BF1000B24BF624639464EEB0E0E8B
:1015800051EA020718BF46F0010616EB0E7655F138
:10159000000254F1000103D5BDE88901BDE80088CF
:1015A000BDE88901BDE80048B619524141EB01018F
:1015B000A3F10103704780807F7E7D7C7B7A797800
:1015C000777676757473727171706F6E6E6D6C6C08
:1015D0006B6A6A69686867666665646463636261AA
:1015E0006160605F5F5E5E5D5D5C5C5B5B5A5A592B
:1015F0005958585757565655555554545353525297
:101600005251515050504F4F4F4E4E4D4D4D4C4CEE
:101610004C4B4B4B4A4A4A49494948484847474737
:101620004746464645454544444444434343434274
:10163000424242414141002B9C4630D477002BD09E
:101640001CB54FEA370703B44FF010004FF01001FC
:10165000BAF1000F06D0BCF1000FDCBF40F008006B
:1016600040F008014FF000000FBCBDE810400BF146
:10167000010BBBF1010F08BF5FEA170722BF12F190
:10168000010211F101014FF0004143F1000300F0AC
:10169000004043EA00007047F9D35708D0E746EA14
:1016A000064613F1400F4FEA16461FDD13F1200FD7
:1016B000DFBF16430A46002120335B42BED0C3F190
:1016C000200746EA064602FA07F74FEA164646EAB8
:1016D0000706C3F1200722FA03F201FA07F721FAFD
:1016E00003F14FF0000342EA0702A7E746EA0206C9
:1016F00046EA06464FEA164646EA0106BCBF46EAF7
:101700000646360C4FF000034FF000024FF0000188
:1017100094E72DE9804C9A46934670B491E83800DE
:1017200007C831EA400C48BF34EA430C03D5FFF741
:10173000E6FDFFF780FFF0BCBDE8008C2DE9804C92
:101740009A46934670B491E8380007C810F0804F6D
:1017500008BF13F0804F03D100F005F8FFF76BFFCF
:10176000F0BCBDE8008C20F07F4780EA030023F046
:101770007F4C07EB0C03A3F57C5300F00040A3F172
:10178000FE0392F0000F00F0B38095F0000F00F020
:1017900077802DE901494FEA11404FEA144621EACA
:1017A000004800FB06FC24EA064708FB06F607FB98
:1017B00008F800FB07F718EB06484CEB164C4FEA0D
:1017C000124B18EB07484FEA15464CEB174022EA3C
:1017D0000B4E0BFB06FC25EA06470EFB06F607FB45
:1017E0000EFE0BFB07F71EEB064E4CEB164C4FF0B4
:1017F00000061EEB074E4CEB174B18EB0B0840F1A5
:10180000000018EB0E0B58EB000840F100008F1A97
:101810004FF000013CBFC943661B14BFB5EB040C7D
:1018200000213CBFC943F61B4FEA17444EEA8E0E17
:1018300027EA04454FEA1C4704FB07622CEA074CE1
:1018400005FB07F70CFB05F604FB0CFC16EB074643
:1018500042EB174216EB0C4642EB1C421BEB060612
:1018600058EB0202414146EA9E0601D5BDE80189D6
:10187000B619524141EB0101A3F10103BDE8018911
:101880004FEA14454FEA114724EA054621EA074C7E
:1018900005FB07F406FB07F70CFB06F105FB0CFC48
:1018A00011EB074144EB17444FEA124711EB0C418F
:1018B00044EB1C4422EA074C05FB07F206FB07F742
:1018C0000CFB06F605FB0CFC16EB074642EB174239
:1018D00016EB0C4642EB1C456A1854F1000148BF58
:1018E0007047B619524141EB0101A3F10103704762
:1018F00095F0000F37D04FEA11424FEA144721EA22
:10190000024624EA074C02FB07F106FB07F70CFB33
:1019100006F402FB0CFC14EB074441EB17414FEAC1
:10192000154714EB0C4441EB1C4125EA074C02FB24
:1019300007F506FB07F70CFB06F602FB0CFC16EBA3
:10194000074645EB174516EB0C4645EB1C421219B2
:1019500051F1000148BF7047B619524141EB0101F6
:10196000A3F1010370474FEA14454FEA114724EAF7
:10197000054621EA074C05FB07F106FB07F70CFBC0
:1019800006F24FF0000605FB0CFC12EB074241EBA0
:10199000174112EB0C4251EB1C4148BF70479218A3
:1019A00041EB0101A3F101037047000008B50121DB
:1019B000082000F071FE0121084600F06DFE0121B3
:1019C000094800F0BDFA10208DF803000820ADF89A
:1019D000000003208DF802006946044800F025FA53
:1019E000002000F005F808BD00023000000C0140A6
:1019F00010B5044622460821024800F0F6FA0248D3
:101A0000047010BD000C01401800002002A1114814
:101A100001F076FA00BFFEE70D0A2A2A2A2A2A2AAE
:101A20002A2A2A2A2A2A2A2A2A2A2A2A2A4275736A
:101A30004661756C745F48616E646C65722A2A2A0F
:101A40002A2A2A2A2A2A2A2A2A2A2A2A2A2A2A2AF6
:101A50000D0A00000038014070470000002120F00E
:101A60007F400D4A127842434FF0E0235A61002232
:101A70009A6101221A6100BF4FF0E022116901F062
:101A800001021AB101F48032002AF5D000224FF091
:101A9000E0231A619A61704714000020002100B908
:101AA000704720F07F400E4A128842434FF0E023F7
:101AB0005A6100229A6101221A6100BF4FF0E022B0
:101AC000116901F001021AB101F48032002AF5D047
:101AD00000224FF0E0231A619A6100BFE0E70000A6
:101AE000160000204FF0E020006920F004004FF0C5
:101AF000E02108610920074908700846007800EBDA
:101B00004001C1EBC0104FF6FF7101EAC00002496D
:101B100008807047140000201600002010B54FF414
:101B200080710348FEF769FD00200249088010BD5E
:101B3000280000202400002070B50546002400BFC6
:101B400000F058F980B90DA10E48FEF719FD0446C2
:101B500054B13A212046FEF709FD044614B1641C35
:101B6000204670BD0020FCE70520FFF797FF281EE8
:101B7000A5F101018DB2E3D100BFF2E74950442C39
:101B8000000000002800002008B50121042000F01A
:101B900083FD10208DF803008002ADF800000320C3
:101BA0008DF802006946334800F03FF900224FF4F7
:101BB0008041304800F019FAFA20FFF76FFF012248
:101BC00091032C4800F011FA4FF4FA70FFF766FF0A
:101BD000FFF7A4FF28A12A4801F092F903E04FF48F
:101BE000FA70FFF75BFF27A127A000F0B5F80028E7
:101BF000F5D127A1224801F083F903E04FF4FA70F0
:101C0000FFF74CFF1FA125A000F0A6F80028F5D192
:101C100026A11B4801F074F903E04FF4FA70FFF7B6
:101C20003DFF18A125A000F097F80028F5D127A1C5
:101C3000134801F065F903E04FF4FA70FFF72EFF47
:101C400025A127A000F088F80028F5D12CA10C4888
:101C500001F056F903E04FF4FA70FFF71FFF2CA1D3
:101C60002DA000F079F80028F5D135A1044801F045
:101C700047F908BD00100140312E2041540D0A00E3
:101C8000003801404F4B000041540D0A0000000095
:101C9000322E2043574D4F44450D0A0041542B43EB
:101CA000574D4F44453D310D0A000000332E204171
:101CB000542B4357444843500D0A000041542B43D2
:101CC00057444843503D312C310D0A00342E2043F7
:101CD000574A41500D0A0000474F54204950000018
:101CE00041542B43574A41503D226B616966616202
:101CF00075222C2268656E67746F6E67220D0A006C
:101D0000352E2043495053544152540D0A000000CF
:101D1000434F4E4E4543540041542B434950535476
:101D20004152543D22544350222C223138332E321A
:101D300033302E34302E3333222C38300D0A00004D
:101D4000362E204553503832363620496E6974207D
:101D50004F4B0D0A000000002DE9F04104460D46EE
:101D6000C8262046FEF71EFC87B23A4621460D489B
:101D700001F0EAF80FE000F03DF848B929460A48BA
:101D8000FEF7FEFB20B1FFF7C9FE0020BDE8F081A1
:101D90000A20FFF783FE301EA6F10101CEB2EAD180
:101DA0000120F3E7004400402800002030B589B04E
:101DB00004460D46FFF7B2FE2A4608A101A8FEF729
:101DC00095FA0AA101A8FFF7C7FF20B92A462146C4
:101DD000074801F0B9F809B030BD000041542B4369
:101DE000495053454E443D25640D0A003E00000015
:101DF000004400400A48008808B90120704708489C
:101E0000008808490988884203D1002004490880D5
:101E1000F4E703480088034908800120EEE700004A
:101E2000240000202600002070472DE9F0410246E2
:101E300000250026002000230024002791F803C07D
:101E40000CF00F0591F803C00CF0100CBCF1000F62
:101E500003D091F802C04CEA050591F800C0BCF12E
:101E6000000F31D0146800202BE04FF0010C0CFA69
:101E700000F3B1F800C00CEA03069E4220D18300B3
:101E80004FF00F0C0CFA03F7BC4305FA03FC4CEAC5
:101E9000040491F803C0BCF1280F06D14FF0010CE7
:101EA0000CFA00FCC2F814C00AE091F803C0BCF1BF
:101EB000480F05D14FF0010C0CFA00FCC2F810C01D
:101EC000401C0828D1D31460B1F800C0BCF1FF0F4A
:101ED00034DD546800202EE000F1080C4FF00108BA
:101EE00008FA0CF3B1F800C00CEA03069E4221D1B7
:101EF00083004FF00F0C0CFA03F7BC4305FA03FC08
:101F00004CEA040491F803C0BCF1280F05D100F19C
:101F1000080C08FA0CF8C2F8148091F803C0BCF160
:101F2000480F07D100F1080C4FF0010808FA0CF82F
:101F3000C2F81080401C0828CED35460BDE8F08160
:101F4000F0B50A46002300240021002500F00046D9
:101F5000B6F1004F02D11D4EF16901E01B4E7168D0
:101F6000C0F3034583B200F44016B6F5401F08D114
:101F700021F07061154E766826F07066134F7E6012
:101F800012E000F48016B6F5801F06D1032606FA8B
:101F900005F4A14341F0706106E0460D360103FAF5
:101FA00006F6B14341F0706122B1460D360103FAE5
:101FB00006F6314300F00046B6F1004F02D1034E61
:101FC000F16101E0014E7160F0BD000000000140D0
:101FD0000246002093680B400BB1012000E0002076
:101FE000704741617047016170470AB1016100E0CB
:101FF0004161704702A1114800F082FF00BFFEE777
:102000000D0A2A2A2A2A2A2A2A2A2A2A2A2A2A2A6D
:102010002A2A2A2A2A486172644661756C745F48CC
:10202000616E646C65722A2A2A2A2A2A2A2A2A2A96
:102030002A2A2A2A2A2A2A2A2A0D0A000038014096
:1020400010B54FF4A06000F03BFAFFF74BFD4FF4E2
:10205000E13000F0A7FE4FF4E13000F0FBFE00F0AD
:1020600099F8FFF7A3FC02A1064800F049FF10BD54
:1020700020486172647761726520696E6974204FCF
:102080004B0D0A00003801402DE9F04104460D4691
:10209000164600276006070E00F02CF9384600F0BF
:1020A000EFF841F2883000F069F910B10120BDE885
:1020B000F081284600F0E4F841F2883000F05EF943
:1020C00008B10120F3E700F015F9791CC8B200F05F
:1020D000D7F841F2883000F051F908B10120E6E765
:1020E00000F09EF8307000F079F800F025F900203B
:1020F000DDE72DE9F04105460E4614460027680647
:10210000070E00F0F7F8384600F0BAF841F28830D0
:1021100000F034F910B10120BDE8F081304600F044
:10212000AFF841F2883000F029F908B10120F3E757
:102130004CB1207800F0A4F841F2883000F01EF98C
:1021400008B10120E8E700F0F7F80020E4E700001C
:1021500010B54FF480610D48FFF743FF4FF4006165
:102160000A48FFF73EFF0A490888FFF777FC4FF45B
:1021700080610648FFF737FF05490888FFF76EFCC6
:102180004FF480610148FFF72CFF10BD000C0140A7
:102190001A00002008B50121082000F07DFA142063
:1021A0008DF803004FF44060ADF8000003208DF877
:1021B000020069460848FFF738FE052000F094F851
:1021C0004FF400610448FFF70EFF4FF480610248AE
:1021D000FFF709FF08BD0000000C014010B54FF4E7
:1021E00080610D48FFF7FDFE4FF400610A48FFF7DC
:1021F000FAFE0A490888FFF731FC4FF4806106486F
:10220000FFF7F1FE05490888FFF728FC4FF48061CD
:102210000148FFF7E6FE10BD000C01401A00002047
:1022200070B5002500244FF400611348FFF7DBFE72
:102230001DE04FF480611048FFF7D3FE0F49088876
:10224000FFF70CFC4FF480610B48FFF7CCFE6006F3
:10225000040E4FF400610848FFF7BAFE08B1601C95
:10226000C4B206490888FFF7F9FB681CC5B2082DFF
:10227000DFDB204670BD0000000C01401A0000208A
:1022800070B5044600254FF480611548FFF7A9FE9C
:1022900023E004F0800028B14FF400611048FFF7FC
:1022A000A2FE04E04FF400610D48FFF79AFE6006BD
:1022B000040E0C490888FFF7D1FB4FF480610848F1
:1022C000FFF791FE07490888FFF7C8FB4FF48061CC
:1022D0000348FFF786FE681CC5B2082DD9DB70BD28
:1022E000000C01401A0000200149088070470000DE
:1022F0001A00002010B54FF400610D48FFF773FE7F
:102300004FF480610A48FFF76EFE0A490888FFF71C
:10231000A5FB4FF400610648FFF763FE05490888F6
:10232000FFF79CFB4FF480610148FFF75AFE10BD98
:10233000000C01401A00002010B54FF400610D4858
:10234000FFF74FFE4FF480610A48FFF74AFE0A4943
:102350000888FFF783FB4FF480610648FFF743FED0
:102360004FF400610348FFF73EFE03490888FFF77A
:1023700075FB10BD000C01401A00002010B504468A
:102380004FF400611648FFF72EFE16490888FFF744
:1023900065FB4FF480611248FFF725FE114908885C
:1023A000FFF75CFB0EE0601E041E07D10EA1134870
:1023B00000F0A6FDFFF7C0FF012010BD0949088805
:1023C000FFF74CFB4FF400610548FFF701FE0028C2
:1023D000E9D14FF480610248FFF703FE0020ECE7EB
:1023E000000C01401A0000205761697441636B20A2
:1023F00054696D654F75740D0A0000000038014086
:1024000002A1114800F07CFD00BFFEE70D0A2A2A58
:102410002A2A2A2A2A2A2A2A2A2A2A2A2A2A2A2A1C
:102420002A4D656D4D616E6167655F48616E646CD4
:1024300065722A2A2A2A2A2A2A2A2A2A2A2A2A2A79
:102440002A2A2A2A2A0D0A00003801407047000073
:1024500070B5002100230F22C47804B3154C246802
:1024600004F4E064C4F5E064210AC1F10403CA4045
:10247000447804FA03F184781440214309010E4C96
:102480000678A155047804F01F050124AC400578B6
:102490006D11AD0005F1E025C5F8004109E00478B3
:1024A00004F01F050124AC40044D0678761145F870
:1024B000264070BD0CED00E000E400E080E100E0AB
:1024C00002490143024A1160704700000000FA050A
:1024D0000CED00E070B5A8B00446182122A8FEF764
:1024E000AEF8802102A8FEF7AAF81FA00088ADF878
:1024F0000800182122A8FEF7A2F81C49086801F07C
:102500007FF805462A460B4619A122A8FDF7EEFEE4
:1025100022A902A8FEF765F8182122A8FEF78FF875
:102520001249486801F06CF805462A460B4616A188
:1025300022A8FDF7DBFE22A902A8FEF752F817A198
:1025400002A8FEF74EF802A8FEF72CF8054614A3E1
:102550001BA21D4900902046FDF7C8FE02A9204697
:10256000FEF73FF828B070BD7B0000001C00002083
:102570002254656D7065726174757265223A2530FA
:102580002E32662C000000002248756D6964697463
:1025900079223A25302E3266000000007D000000CE
:1025A000616B74687431665749426D365872786C45
:1025B0006779695152614B70416C673D00000000C2
:1025C00037353033333739003038000810B504461A
:1025D0000DA12046FDF7D4FF20B10DA1104800F059
:1025E0008FFC0DE00FA12046FDF7CAFF20B10FA11F
:1025F0000B4800F085FC03E010A1094800F080FCC6
:10260000FFF78CFA10BD0000434C4F5345440000C7
:1026100054435020434C4F5345440D0A00000000E2
:1026200000380140737563630000000054697073E3
:102630003A0953656E64204F4B0D0A00546970735C
:102640003A0953656E64204572720D0A000000005D
:1026500010B5C0B04FF480716846FDF7F0FF6846D2
:10266000FFF738FF6846FDF79DFF84B221466846B4
:10267000FFF79CFB40B010BD29B1064AD269024366
:10268000044BDA6104E0034AD2698243014BDA6108
:10269000704700000010024029B1064A92690243C7
:1026A000044B9A6104E0034A92698243014B9A61A8
:1026B000704700000010024030B5002100220024C5
:1026C00000232D4D6D6805F00C0121B1042905D0C2
:1026D000082923D105E0294D056022E0284D056039
:1026E0001FE0254D6D6805F47012234D6D6805F4EB
:1026F0008034022505EB92421CB9224D55430560FA
:102700000BE01D4D6D6805F400351DB11E4D5543A0
:10271000056002E01A4D5543056002E0174D056063
:1027200000BF00BF144D6D6805F0F0010909174D99
:102730006B5C0568DD4045600F4D6D6805F4E06138
:10274000090A124D6B5C4568DD4085600A4D6D6875
:1027500005F46051C90A0D4D6B5C4568DD40C560EC
:10276000054D6D6805F44041890B094D6B5CC568EA
:10277000B5FBF3F5056130BD0010024000127A0090
:10278000001BB70000093D00808D5B0000000020A9
:10279000100000207047000008B5002000900520C0
:1027A000FFF7A2FD00F030F86420FFF757F9002191
:1027B000E32000F0AAF8134908604B20FFF76EF9F8
:1027C0000021E52000F0A1F80E4948601E20FFF727
:1027D00065F900F019F81E20FFF760F96A46E62156
:1027E0004020FFF786FC6420FFF738F900F00CF872
:1027F0006420FFF733F900F012F86420FFF72EF998
:1028000008BD00001C00002008B5002000906A46AA
:10281000E7214020FFF738FC9DF8000008BD10B507
:102820000022FE214020FFF764FC10BD2DE9F84F87
:1028300082464FF0000B2AF0030A504600F02CFFAE
:10284000009000F0DDFE8046074A084B00F0F0FCE7
:1028500006460022064B00F0E9FD044600F00EFC9F
:1028600083465846BDE8F88F7644CF7701405F3FF6
:10287000000018402DE9F84F82464FF0000B2AF077
:10288000030A504600F008FF009000F0B9FE8046B1
:10289000074A084B00F0CCFC0646074A074B00F0FD
:1028A0001FFC044600F0EAFB83465846BDE8F88F5B
:1028B000D7A3703D0AF7653FCDCCCCCCCC6C47C0DC
:1028C00070B503460C46154600210026002200BFC5
:1028D00013E0985C414008260BE001F0800020B135
:1028E000312080EA4100C1B201E04806010E701EAD
:1028F000C6B2002EF1DC501CC2B2A242E9DBA942F2
:1029000001D0012070BD0020FCE72DE9F843064608
:102910000C4600270025A846A9468025FFF7EAFCBB
:102920002846FFF7ADFC4CF25030FFF727FD10B101
:102930000020BDE8F8833046FFF7A2FC4CF250308F
:10294000FFF71CFD08B10020F3E7FFF7D3FC691C7B
:10295000C8B2FFF795FC05E0FFF7CCFC691CC8B2D4
:10296000FFF78EFC4CF25030FFF708FD0028F3D142
:102970004B20FFF793F8FFF753FC8DF80000FFF7AB
:10298000E7FBFFF74DFC8DF80100FFF7E1FBFFF7D8
:1029900047FC0746FFF722FCFFF7CEFC3A46022130
:1029A0006846FFF78DFF9DF801009DF8001000EBD1
:1029B00001201FFA80F8E32E04D14046FFF75AFFAA
:1029C000814603E04046FFF731FF81461CB148468F
:1029D00000F042FE20804846ABE7704710B500F09B
:1029E00001F810BD0CB5002001900090334800683C
:1029F00040F480303149086000BF3048006800F47E
:102A0000003000900198401C0190009818B901987E
:102A1000B0F5A06FF1D12948006800F4003010B182
:102A20000120009001E0002000900098012843D18F
:102A30002348006840F010002149086008460068FB
:102A400020F0030008600846006840F002000860BB
:102A50001A48406819494860084640684860084676
:102A6000406840F4806048600846406820F47C106C
:102A700048600846406840F488104860084600688E
:102A800040F08070086000BF0C48006800F00070E3
:102A90000028F9D00948406820F003000749486041
:102AA0000846406840F00200486000BF03484068A4
:102AB00000F00C000828F9D10CBD00000010024005
:102AC000002002407047000010B51348006840F035
:102AD00001001149086008464068104908400E4945
:102AE0004860084600680E4908400B4908600846DF
:102AF000006820F4802008600846406820F4FE004A
:102B000048604FF41F008860FFF768FF4FF00060D7
:102B10000449086010BD0000001002400000FFF8EA
:102B2000FFFFF6FE08ED00E010B540F22551044825
:102B300000F050F818B12021014800F029F810BD2C
:102B40000038014010B540F225510E4800F042F81F
:102B5000B0B10D480088FF2802D900200A4908803A
:102B60000848001D0088C1B2074802880088401C40
:102B7000054B1880054881542021024800F008F8D0
:102B800010BD000000440040240000202800002068
:102B900001F40072B2F5007F00D100BFCA43028089
:102BA000704721B1828942F40052828104E0828917
:102BB0004DF6FF731A408281704702460020B1F53E
:102BC000007F00D100BF13880B400BB1012000E053
:102BD0000020704770B50246002400230025002025
:102BE00040F66A16B14200D100BFC1F3421501F0B0
:102BF0001F03012606FA03F3012D02D19689334003
:102C000006E0022D02D1168A334001E0968A334055
:102C10000C12012606FA04F41688344013B10CB1E4
:102C2000012000E0002070BDF0B50346002400261E
:102C30000025002040F66A17B94200D100BF1846AF
:102C4000C1F3421401F01F06012707FA06F5012C13
:102C500001D10C3004E0022C01D1103000E014301E
:102C60001AB107682F43076002E00768AF430760A7
:102C7000F0BD00002DE9F04786B005460E46002461
:102C8000A24600BFA1460027B08900B100BF2F4671
:102C90002C8A4CF6FF700440F08804432C82AC89E7
:102CA0004EF6F3100440B088318908437189084317
:102CB0000443AC81AC8A4FF6FF400440B089044322
:102CC000AC8201A8FFF7F8FC1F48874202D1DDF86B
:102CD00010A001E0DDF80CA0A88900F4004040B18C
:102CE0000AEBCA0000EB0A1031684900B0FBF1F8AA
:102CF00007E00AEBCA0000EB0A1031688900B0FB5C
:102D0000F1F86420B8FBF0F004012009642101FB14
:102D10001089A88900F4004040B1322000EBC900BE
:102D2000B0FBF1F000F00700044308E0322000EBB4
:102D300009106421B0FBF1F000F00F0004432C8176
:102D400006B0BDE8F087000000380140C1F308027A
:102D50008280704702A1124800F0D2F800BFFEE75F
:102D60000D0A2A2A2A2A2A2A2A2A2A2A2A2A2A2A00
:102D70002A2A2A2A2A55736167654661756C745F31
:102D800048616E646C65722A2A2A2A2A2A2A2A2A0B
:102D90002A2A2A2A2A2A2A2A2A2A0D0A0000000078
:102DA0000038014010B586B0044601210420FFF729
:102DB00073FC01218803FFF76FFC18208DF81700C2
:102DC0004FF40070ADF8140003208DF8160005A92B
:102DD0001E48FFF72AF804208DF817000002ADF80E
:102DE000140003208DF8160005A91848FFF71DF8F8
:102DF00001940020ADF810000C20ADF80E0000206A
:102E0000ADF80C00ADF80A00ADF8080001A91048B3
:102E1000FFF730FF01210E48FFF7C3FE012240F209
:102E200025510B48FFF700FF25208DF800000120F9
:102E30008DF8030000208DF8010002208DF80200BB
:102E40006846FFF705FB06B010BD00000008014012
:102E50000038014010B586B0044601210420FFF778
:102E60001BFC01214804FFF707FC18208DF8170010
:102E70000420ADF8140003208DF8160005A91E48A3
:102E8000FEF7D3FF04208DF817000820ADF81400DA
:102E900003208DF8160005A91748FEF7C6FF019418
:102EA0000020ADF810000C20ADF80E000020ADF8A9
:102EB0000C00ADF80A00ADF8080001A90F48FFF7B3
:102EC000D9FE01210D48FFF76CFE012240F2255189
:102ED0000A48FFF7A9FE26208DF8000001208DF892
:102EE000030000208DF801008DF802006846FFF70E
:102EF000AFFA06B010BD00000008014000440040D9
:102F00000FB430B5CBB0054601AC50A800904FF4DB
:102F1000947101A8009B4F9AFDF7CEF90020009014
:102F20000BE014F8011B2846FFF710FF00BF4021FB
:102F30002846FFF742FE0028F9D020780028F0D17B
:102F40004BB030BC5DF814FB2DE9F04107460C4650
:102F5000154600260DE014F8011B3846FFF7F6FE73
:102F600000BF40213846FFF728FE0028F9D0701C2A
:102F700086B2AE42EFDBBDE8F081490050EAC120E5
:102F800018BF04204A0D18BF40F0010040F2FF7244
:102F9000B2EB515F08BF40F00200012808BF0520D6
:102FA000704730380A2801D201207047002070474E
:102FB00000250024FFF744F8FEF7E6FD0120FEF7A8
:102FC00017FDFA20FEF76AFD0020FEF711FD1BE059
:102FD000681C80B20546B0F5FA7F0ADBFFF7DCFB20
:102FE0000AA10F48FFF78CFFFFF732FB0025FEF721
:102FF00095FD0020FEF7A0FD044614B12046FFF722
:10300000E5FA0A20FEF74AFDE2E700004F6E654E42
:1030100065745F53656E64446174610D0A0000005D
:103020000038014010B500290AD00878002807D0E0
:1030300005487844FEF7AAF8002801D0002010BD0A
:103040000248784410BD0000860800007E08000099
:1030500010B500290AD00878002807D00548784420
:10306000FEF794F8002801D0002010BD02487844F3
:1030700010BD0000760800006E08000021F000423C
:10308000A2F16052B2F5801F01F0004328BFD2F1D7
:103090007F6C0BD95FEA001C43EAC20242EB50701E
:1030A00018BF704728BF20F001007047B2F5801F9D
:1030B000BCBF184670474FEA410C1CF5001F02D2F6
:1030C000084600F042BB70B500F05CF900000089D2
:1030D000FFF7F6BF4FF00040A0F5800070470000FA
:1030E00010B591EA030F48BF83F0004300F1A681B9
:1030F000841A71EB030C05D2121943EB0C03001B6D
:1031000061EB0C01DFF824E14FEA1154A4EB135CEE
:103110001EEA430F18BF9EEA445F73D023EA0E03F2
:10312000DCF1200E21EA045143F4801332D322FA59
:103130000CFE10EB0E0023FA0CFE41EB0E01CCF15D
:10314000200E03FA0EFE10EB0E0051F10001B1F556
:10315000801FCCF1200E32D201EB045112FA0EF294
:10316000BDE8104058BF7047401C38BF5FEA4202BC
:1031700018BF7047002814BF20F0010041F1000182
:103180004FEA410313F5001F38BF7047A1F1C0415A
:1031900000F046B9012A43EB0302ACF1200CDCF14C
:1031A0001F0E32BF4FF0000E23FA0CF310EB03009A
:1031B00041EB0451B4EB115FD0D0A1EB045101F508
:1031C000801149085FEA300001EB04510ED350F141
:1031D000000038BF12FA0EFE08D1BDE81040C9E762
:1031E000401C38BF5FEA4202CAD1C3E7BDE81040C5
:1031F0004FEA410313F5001F38BF7047A1F1C041EA
:1032000000F00EB99EEA445F08D011EA5E0FBDE8F7
:10321000104004BF01F0004100207047BDE810409D
:1032200070B500F0AFF800BF64FBBE3E0000E0FFE9
:10323000DFF848C170B51CEA111E1EBF1CEA131549
:103240009EEA0C0F95EA0C0F00F06F8081EA0304F0
:1032500023EA4C134EEAD47E21EA4C1141F480114A
:1032600043F48013AE44A1FB024CA0FB0365AEF116
:103270007F7E361955EB0C05A1FB034C4CF1000386
:10328000A0FB021C16EB0C06654153F1000309423A
:1032900018BF46F0010613F4007F0BD14FEA03314B
:1032A0004FEA0530340341EA155140EA16506FF0F9
:1032B00003020AE04FEAC3214FEAC520F40241EAC3
:1032C000555140EA56506FF0020202EB2E4201EBDC
:1032D000025585EACE710AD05FEA440C18BF24F08B
:1032E000004450F1000041F1000120EAD47040F2A6
:1032F000FE7C624500D270BDA84214BF4FF08044EE
:103300004FF04044002E08BF0024BEF1806FA8BFDC
:10331000A1F1C041BDE8704080F282804FF0000012
:1033200001F1C04101F0004170479EEA0C0F0CEA28
:10333000131518BF95EA0C0F06D04FF0000081EA74
:10334000030E0EF0004170BD00F01CF88900013E34
:1033500000F007B800F009B84FEA430C5FEA5C5C84
:1033600008D081EA030100F05BB84FEA410C5FEA44
:103370005C5CF6D14FF00000014970470000FF0788
:103380000000F87F0EF1020E2EF0030E5EF8046BC3
:10339000364205D4012A43EB030515F5001F12D868
:1033A000012841EB010C1CF5001F0CD80ED14FEA8F
:1033B000D17C15F5001F0CEB4C0C0CF1020C08BF76
:1033C0004CEBD37C04E04FF0080C01E04FEAD37CD7
:1033D0000CEB4C0526FA05F606F00706B6F1040CD0
:1033E00006D20EEB860CBDE870404CF0010C604735
:1033F000DFE80CF0090B02024FF000414FF0000033
:10340000A1F5002170BD19461046012851EB0104B9
:1034100018BFD4F5001484BF002001F0004170BD36
:103420000808A0F500114FEA3101704710B591EA84
:10343000030F48BF83F000433FF55AAE841A71EB87
:10344000030C07D212198CF0004C43EB0C03001B49
:1034500061EB0C01DFF8A4E14FEA1154A4EB135C1B
:103460001EEA430F18BF9EEA445F00F0B08023EAD3
:103470006E03524221EA0451C3EB6E0338BF5B1E58
:10348000DCF1200E25D322FA0CFE10EB0E0043FADD
:103490000CFE41EB0E01CCF1200E03FA0EFE10EBF8
:1034A0000E0051F10001CCF1200E29D412FA0EF2D7
:1034B00001EB0451BDE8104058BF7047401C1CBFD1
:1034C000B2F1004F704700280CBF491C20F00100EA
:1034D000704712EB020E43EB030218BF4FF0010ED0
:1034E0004EEA4202ACF1200CDCF11E0E54D943FA34
:1034F0000CFE10EB0E0051F1FF31CCF11E0ED5D5B4
:103500000EF1010E12FA0EFE404141EB010101EBFA
:10351000445C5FEA5C5C10D910EBDE7001EB045197
:1035200038BFBEF1004FBDE8104018BF70470028FB
:103530000CBF491C20F00100704730D24FEAD42C58
:1035400011F5001124F400641BD0B1FA81F20B3A9A
:10355000A41AA41ED2F12003914030FA03F31943B8
:10356000904001EBCC71002C01EB0451BDE8104000
:10357000A8BF704701F1C0414FF0000001F00041C9
:103580007047B0FA80F310FA03F100D110BDE41ACD
:10359000173C4805C90AE4E701EB045110BD491086
:1035A00001EB0451BDE810404FEA300002E04FF05B
:1035B000000170474A0008BF0042F8D0B2F5001F72
:1035C00028BF704701F000414FF0000070479EEAAD
:1035D000445F07D011EA5E0FBDE8104004BF002130
:1035E00000207047BDE8104070B5FFF7CBFE00BF6C
:1035F00040DFF63E83F00041104670470000E0FFD8
:1036000043004FEAD30C4FEA3C0C43401FBF400736
:103610000CF1605113F0FE4F70471CF0006F03D1A6
:1036200000200CF0004170470CF0004343EA50705A
:1036300010B540EACC0000F042F800BF0000009254
:103640004FEA0001FFF7ECBE4FF000414FF00000E1
:10365000A1F5002170470000C10DD1F19E0206DBEB
:103660004FEA002343F0004323FA02F07047004280
:1036700007D54FEA4001B1F1FE4F02D24FF00000F2
:10368000704710B500F01BF8499224800020704765
:103690006FEA200070470000B0FA80F310FA03F2DE
:1036A000C3F19D030AD0D90501EB1220530638BFA0
:1036B000704700F1010008BF20F0010070470EF1D3
:1036C000020E2EF0030E5EF8044B244204D44FEA9F
:1036D0004102B2F17F4F11D84FEA4003B3F17F4F5F
:1036E0000CD80ED14FEAD07CB2F17F4F0CEB4C0CD2
:1036F0000CF1020C08BF4CEBD17C04E04FF0080C3D
:1037000001E04FEAD17C0CEB4C0324FA03F404F003
:103710000704B4F1040C06D20EEB840CBDE8104093
:103720004CF0010C6047DFE80CF0070802024FF094
:103730000040A0F5800010BD0846420018BFD2F13D
:10374000807288BF00F0004010BDFF2141EAD050D8
:10375000C0057047FDF71CB9040000080000000018
:103760000000000200010000100000000000000046
:1037700000000000303132333435363738394142B9
:1037800043444546403058003031323334353637C3
:103790003839616263646566403078000240000039
:1037A000000000A00000000005400000000000C86C
:1037B000000000000C4000000000409C00000000E1
:1037C000194000000020BCBE000000003440000092
:1037D000BFC91B8E00000004B5400000504BCFD085
:1037E0006607E2CF010000006C4100003E8251AA52
:1037F000DFEEA73401000000D9420000DCB5A0E2F2
:103800003A301F97FFFFFFFFB4450000FD25A0C819
:10381000E9A3C14FFFFFFFFFFF3F00000000008052
:1038200000000000FF3F00000000008000000000DA
:10383000504F5354202F646576696365732F257349
:103840002F64617461706F696E74733F7479706511
:103850003D3320485454502F312E310D0A61706988
:103860002D6B65793A25730D0A486F73743A617050
:10387000692E6865636C6F7564732E636F6D0D0AD6
:10388000436F6E74656E742D4C656E6774683A256F
:10389000640D0A0D0A000000E43900080000002051
:1038A000280000006C0100080C3A000828000020E5
:1038B00060090000880100081C00000043000000AF
:1038C000F8FFFFFF0C0000000E0000000F000000DA
:1038D0002E0000001001000043000000F8FFFFFF71
:1038E0000040404040404040404041414141414013
:1038F00040404040404040404040404040404040C8
:103900004005020202020202020202020202020256
:10391000022020202020202020202002020202025B
:1039200002029090909090901010101010101010B3
:1039300010101010101010101010101002020202BF
:103940000202888888888888080808080808080803
:1039500008080808080808080808080802020202FF
:103960004000000000000000000000000000000017
:103970000000000000000000000000000000000047
:103980000000000000000000000000000000000037
:103990000000000000000000000000000000000027
:1039A0000000000000000000000000000000000017
:1039B0000000000000000000000000000000000007
:1039C00000000000000000000000000000000000F7
:1039D00000000000000000000000000000000000E7
:1039E00000000000000000000102030401020304C3
:1039F0000607080902040608000000000000000095
:0C3A0000000000000000000000000000BA
:0400000508000131BD
:00000001FF
